:020000040800F2
:1000000000020020B5920008B1BF0008F9BC00084A
:1000100035BD000871BD0008ADBD0008000000003E
:1000200000000000000000000000000045D50008AE
:10003000D1BE00080000000041BF000809D500083B
:1000400055920008559200085592000855920008F4
:1000500055920008559200085592000855920008E4
:1000600055920008559200085592000855920008D4
:1000700055920008559200085592000855920008C4
:1000800005CC0008C9CB000855920008000000000C
:100090000000000000000000000000005592000871
:1000A0005592000855920008559200085592000894
:1000B0005592000855920008559200085592000884
:1000C0005592000855920008559200085592000874
:1000D0005592000851CB00088DCB000800000000AD
:1000E0005592000855920008559200080000000043
:1000F0000000000000000000000000005592000811
:1001000000000000B5D8000855920008559200087C
:1001100000000000000000000000000000000000DF
:1001200055920008559200085592000879D80008A9
:1001300055920008000000000000000000000000D0
:1001400000000000000000000000000055920008C0
:1001500055920008559200085592000855920008E3
:1001600055920008559200080000000000000000B1
:10017000000000000000000000000000000000007F
:100180000000000055920008000000000000000080
:100190005592000808B5062000F028FF01200BF05A
:1001A000A5F900BF80B514460A4A1568064684B012
:1001B0000F46E86854B1084D1A460849009733467F
:1001C0000195029400F05CF9FFF7E4FF044D2C4622
:1001D000F2E700BF408F0108589F0108689F01089F
:1001E0004C94010808B513460022FFF7DBFF00BF5F
:1001F00030B405460C46134602202946224630BC40
:100200000BF072B945F20101C0F6000100F04CB9E3
:1002100008B5838903F400731BB213B960300EF084
:1002200007FB002008BD00BF08B5838903F40073F5
:100230001BB213B960300EF0C1FA002008BD00BF38
:10024000002310B504468181C2810360436083604E
:100250008367036143618361194600F170000822DE
:1002600000F0D6FD41F2D903C0F60003636241F20B
:100270000913C0F60003A36241F25113C0F6000354
:10028000E36241F28913C0F600032462236310BDC8
:1002900070B5CD010E4605F10C0100F0A7F904463A
:1002A00040B100F10C00002184E84200A0602A4621
:1002B00000F0AEFD204670BD48F64073C0F6010365
:1002C0001868FFF79FBF00BF40F60C00C2F20000A5
:1002D0000EF074BA40F60C00C2F200000EF0A8BA9C
:1002E00001480EF06BBA00BF1C08002001480EF058
:1002F0009FBA00BF1C08002070B50446FFF7F0FF4E
:10030000A569002D2CD1184B1B689C4205D00123F8
:10031000A361BDE87040FFF7E9BF144BE563012618
:10032000236225646564A661204600F021F86060C0
:10033000204600F01DF8A060204600F019F80421C6
:10034000E0602A466068FFF77BFFA068082132461C
:10035000FFF776FFE06812210222FFF771FFA66126
:10036000BDE87040FFF7C2BF408F010805020008DA
:1003700070B582B001A9064601200EF07BFAFFF7A6
:10038000A3FF284B1D68AB69002B35D03C356B684B
:10039000AC68013B04D52BE0013B80345A1C27D0CC
:1003A000B4F90C20002AF7D14FF6FF730025E38142
:1003B0000123A381A56725666566A566E566FFF747
:1003C00089FF01A901980EF055FA2560A5606560C6
:1003D00025616561A56104F170002946082200F0DD
:1003E00017FD6563A563A564E564204602B070BD92
:1003F0002C682CB12546CAE72846FFF77DFFC5E7E4
:1004000030460421FFF744FF044628600028F1D15C
:10041000FFF760FF019801A90EF02CFA0C2333605E
:10042000E3E700BF408F010808B5FFF74DFF0BF071
:100430007FF840F22921C0F60001BDE8084000F035
:1004400033B800BF08B50BF073F840F21121C0F6C5
:10045000000100F029F8BDE80840FFF73BBF00BFEE
:100460000CB410B582B004AC54F8042B23460194AC
:1004700001F0D8FA02B0BDE8104002B0704700BFEA
:100480000EB430B582B005AB054653F8044B01936A
:100490000BF04EF829462246019B01F0C3FA02B048
:1004A000BDE8304003B070472DE9F04110F13C0643
:1004B000884619D000277568B468013D0ED4A38919
:1004C000013D43B1012B06D9B4F90E30013320466A
:1004D00001D0C047074380346B1CF0D13668002E32
:1004E000E9D13846BDE8F08137463846BDE8F081AD
:1004F0002DE9F84310F13C06804689461AD00027C2
:100500007568B468013D0FD4A389013D4BB1012B3F
:1005100007D9B4F90E3001332146404601D0C8470F
:10052000074380346A1CEFD13668002EE8D1384684
:10053000BDE8F88337463846BDE8F883F0B4124E7C
:10054000B3685F6827F003070F2FD4BF0021012194
:100550003A46022506EB8504E3689C4207D05868BA
:10056000DB6820F0030001319C420244F7D10235E0
:10057000B5F5807FEED1054B18685960801AD861B7
:100580001A625F62F0BC70477402002030080020DD
:10059000F8B540F630040646C2F2000408460F469D
:1005A0000AF0C2FFFFF7CAFF0FCC35460FC50FCCCC
:1005B0000FC594E8030085E8030038460AF0B6FF4B
:1005C0003046F8BD10B504460AF0B2FF2146BDE83A
:1005D000104000F00BB800BF10B504460AF0A8FFA9
:1005E0002146BDE8104004F039BF00BF2DE9F04FAF
:1005F00001F10B05162D83B006462CD925F0070511
:10060000EB0F8D422CBF194643F0010100292BD17D
:1006100030460AF089FFB5F5FC7F29D2B94F4FEA81
:10062000D50C07EBCC03DC689C4200F0EE816368DC
:10063000E268A16823F00303E318CA605868916078
:1006400040F00100586030460AF070FF0834204640
:1006500003B0BDE8F08F002310258D422CBF194652
:1006600043F001010029D3D00C2333600024EEE7CE
:100670005FEA552C04BF4FEAD50C4FEA4C0140F01D
:100680008480A04F07EB8101CC68A14206D10DE028
:10069000002B80F23B81E468A14207D0626822F01F
:1006A0000302531B0F2BF3DD0CF1FF3C0CF1010C8B
:1006B000944B3C6903F1080E744508BFD3F80490CD
:1006C00022D0616821F003014A1B0F2A00F36A81DE
:1006D000002AC3F814E0C3F810E061DAB1F5007F36
:1006E00080F03681CA0803EBC2014FF00109921075
:1006F00009FA02F95A688868E16049EA0209A060CB
:10070000C3F804908C60C46001204FEAAC0300FA87
:1007100003F048454ED819EA000F07D12CF0030C1E
:10072000400019EA000F0CF1040CF9D007EBCC09DA
:100730004C46E046E3689C4207D146E1002A80F23D
:100740006E81DB689C4200F04081596821F0030112
:100750004A1B0F2AF2DD1C465919D86854F808CFF5
:100760008A5045F0010542F00102CCF80C00C0F8B7
:1007700008C05D6079613961C1F80CE0C1F808E03A
:100780004A6030460AF0D2FE61E7BCF1040F00F285
:10079000CB804FEA951C0CF1380C4FEA4C0170E706
:1007A000611830464B6843F001034B600AF0BEFE0F
:1007B00008344CE7BC68636823F003094D4504D84E
:1007C000C5EB09030F2B00F38F80DFF83CA1D7F8AE
:1007D0000834DAF80010013329441BBF01F20F413D
:1007E00021F47F7B01F1100B2BF0030B04EB0902CA
:1007F0003046594601920AF07DFEB0F1FF3F804637
:10080000019A00F05381824200F21F81DAF804302D
:1008100042455B44CAF8043000F05181D7F808140F
:1008200001310DBF374BC2EB08029B18C3F8088497
:1008300018BFCAF8043018F007021CBFC2F1080341
:10084000984408EB0B0314BFC2F581624FF4806239
:100850009B059B0DC3EB020B304659460AF04AFE3E
:10086000431C00F03881C8EB00025A4442F00102F8
:10087000DAF80430C7F808805B44BC42CAF8043098
:10088000C8F8042015D0B9F10F0F40F2FE8062685D
:10089000A9F10C0121F00701601802F0010E41EAF4
:1008A0000E0E05220F29C4F804E04260826000F2B7
:1008B0001681DAF82C20BC68934284BF124AD362B6
:1008C000DAF83020934284BF0F4A1363626822F043
:1008D00003029542C5EB020301D80F2B04DC30461E
:1008E0000AF024FE0024B2E6621943F0010345F049
:1008F0000105656030465360BA600AF017FE08349F
:10090000A5E600BF740200202C080020A218E368AE
:100910005068A16840F001005060CB60996030469B
:100920000AF004FE083492E6BCF1140F9CBF0CF1EF
:100930005B0C4FEA4C017FF6A4AEBCF1540F00F201
:100940008D804FEA153C0CF16E0C4FEA4C0198E695
:100950004B0A042B72D9142B9CBF03F15B094FEA9D
:10096000490008D9542B00F2C2804FEA113909F12D
:100970006E094FEA490007EB8000DFF8B481836815
:10098000834275D05A6822F00302914202D29B68DA
:100990009842F7D1D968D7F80490E160A360DC6091
:1009A0008C60B1E6611942F0010045F00105656017
:1009B000596119614860C1F80CE0C1F808E08A503B
:1009C00030460AF0B3FD083441E608F10108083466
:1009D00018F0030F7FF4AEAE4B461CF0030FA3F1EB
:1009E00008020CF1FF3C00F09A801B689342F4D09F
:1009F0007B68400098423FF6DDAE00283FF4DAAE57
:100A0000034200F09180C44690E604F10803646953
:100A1000A34208BF0CF1020C3FF44AAE07E6591896
:100A20001C464868DB6854F8082F40F00100486015
:100A3000D3609A6030460AF079FD08E64FEA9119D2
:100A400009F138094FEA490095E7BC423FF4DEAEB0
:100A5000374B9C68626822F003023AE7BCF5AA7F34
:100A600019D84FEAD53C0CF1770C4FEA4C0108E657
:100A7000D8F804204FEAA909012101FA09F141EA55
:100A80000209C8F80490194687E70123C8F8043022
:100A9000444600221DE740F254539C450BD84FEAD0
:100AA000954C0CF17C0C4FEA4C01EAE5BC6862689D
:100AB00022F003020DE7FC214FF07E0CE1E59105E9
:100AC000890D00297FF4AAAEBA680BEB090141F049
:100AD00001015160EDE601224FF0000BC8E63046FF
:100AE00004F1080104F0BAFC124B5B68E1E6B3F5CF
:100AF000AA7F06D84FEAD13909F177094FEA4900B0
:100B000039E740F25452FC2093424FF07E099EBFD9
:100B10004FEA914909F17C094FEA49002BE77B68CC
:100B200023EA00037B6064E7400008F1040867E7FC
:100B3000740200202C080020830770B4C9B240D092
:100B4000541E002A3FD003788B4221D0431C04E07E
:100B500004B30278013C8A421AD013F0030F1846FE
:100B600003F10103F4D1032C16D8651E94B1037868
:100B70008B420DD0421C002302E004788C4207D047
:100B80009D42104603F1010302F10102F5D100205C
:100B900070BC70472046FBE741EA012646EA06465C
:100BA0000246043013687340A3F1013525EA0303BC
:100BB00013F0803F03D1043C032CF1D8D5E7104655
:100BC000D3E71446CFE71046E2E700BF032A70B42C
:100BD00022D941EA00039B0713D005780C78013A2B
:100BE0000023A54206D01BE010F8015F11F8014F69
:100BF000A54215D1934203F10103F5D1002070BC49
:100C000070470D6806680C46034604310430AE4256
:100C100008D1043A032AF4D8002ADED11046EEE7C0
:100C2000281BECE721461846002AD6D1F6E700BF7C
:100C30000F2AF0B43FD941EA00039B073DD10C468F
:100C40000346154626681E6066685E60A6689E605C
:100C5000E668103DDE60103410330F2DF2D8A2F19B
:100C6000100525F00F0502F00F041035032C00EBE2
:100C70000503294423D9043C4FEA940C01EB8C076B
:100C80000C4604371D4654F8046BBC4245F8046B0F
:100C9000F9D10CF10104A40002F0030209191B1997
:100CA0003AB101399A1811F8014F03F8014B9342F8
:100CB000F9D1F0BC70470346F2E70346F1E722465C
:100CC000EEE700BF8842F0B411D98C18A0420ED2D2
:100CD0008518531E4AB121462A4611F8014D013BA1
:100CE000B3F1FF3F02F8014DF7D1F0BC70470F2A76
:100CF0003FD941EA00039B073DD10C460346154608
:100D000026681E6066685E60A6689E60E668103DA4
:100D1000DE60103410330F2DF2D8A2F1100525F04B
:100D20000F0502F00F041035032C00EB05032944D6
:100D300023D9043C4FEA940C01EB8C070C46043792
:100D40001D4654F8046BBC4245F8046BF9D10CF114
:100D50000104A40002F0030209191B19002AC4D0DF
:100D600001399A1811F8014F03F8014B9342F9D158
:100D7000BBE70346F2E70346F2E72246EEE700BF91
:100D8000531E70B40446C018451C15F0030FC9B2B9
:100D90003BD0FAB1E25C8A421DD0024605E0E3B1E5
:100DA00012F8014D013B8C4215D0013812F0030FAF
:100DB000F5D1032B13D85A1E7BB103788B420AD08E
:100DC000431E03E00478013A8C4204D01846013BEC
:100DD000002AF7D1104670BC70471846FBE741EA7D
:100DE000012646EA0646C21E1046043A04687440CC
:100DF000A4F1013525EA040414F0803F03D1043B3B
:100E0000032B1046F0D80330D5E71346D1E700BFD7
:100E100070B48407034642D0541E002A3DD0CEB29F
:100E200003E0621E002C38D0144603F8016B9A07C9
:100E30001D46F6D1032C29D9CAB20F2C42EA022250
:100E400042EA024284BF2B46264611D9103E1A6060
:100E50005A609A60DA6010330F2EF7D8A4F11003AD
:100E600023F00F0304F00F041033032C1D440DD99D
:100E70002E462346043B032B46F8042BFAD8231FA7
:100E800023F00303043304F00304ED182CB1C9B2BA
:100E90002C1905F8011BA542FBD170BC7047054613
:100EA0001446C7E70EB410B5044683B018B1836981
:100EB0000BB9FFF721FA074A126806AB9168059A49
:100EC0000193204601F038FC03B0BDE8104003B0A8
:100ED000704700BF408F01080FB410B582B00AF010
:100EE00027FB044618B183690BB9FFF705FA074AD7
:100EF000126805AB9168049A0193204601F01CFC2E
:100F000002B0BDE8104004B0704700BF408F010838
:100F100030B5054689B008460C4600F013FD264A58
:100F20000494431C039304AB069201930122022311
:100F300005900792029315B1AB69002B37D01F4B78
:100F40001B689C68012069460DF094FCA38903F49A
:100F5000007212B2002A24D003F4005212B232B945
:100F6000A26F43F4005322F40052A381A2672846E3
:100F7000214601AA04F03AFBA38903F400731BB2D3
:100F800000280CBF0A254FF0FF351BB904F16000A3
:100F90000DF04EFC009869460DF06CFC284609B037
:100FA00030BD04F160000DF009FCA389D4E72846A8
:100FB000FFF7A2F9C3E700BF9C940108408F010826
:100FC00010B504460AF0B4FA2146BDE81040FFF718
:100FD0009FBF00BF38B50C4605460AF0D5FA224639
:100FE00001462846BDE838400AF0C6BA10B50446A6
:100FF0000AF09EFA2146BDE81040FFF7EBBF00BFA4
:1010000038B50C460968054609B1FFF7F9FF2846CF
:101010002146BDE8384004F021BA00BF2D4B1B68C3
:10102000984270B5054654D0C369EBB1DA68B2B1E5
:1010300000231E4652F8231041B10C68284604F0E4
:101040000DFA2146002CF8D1EB69DA680136202E22
:101050003346EFD12846114604F000FAEB691968CF
:1010600011B1284604F0FAF9696911B1284604F073
:10107000F5F9E96911B1284604F0F0F9296B11B1CD
:10108000284604F0EBF9696B11B1284604F0E6F943
:10109000A96B11B1284604F0E1F9E96C11B12846B9
:1010A00004F0DCF9A96C11B1284604F0D7F9E96A1B
:1010B00011B1284604F0D2F9AB6953B12B6A0BB1D8
:1010C00028469847E96B21B12846BDE87040FFF7F4
:1010D00097BF70BD2002002010B50C46B1F90E106C
:1010E0000AF0B6FB002807DBD4E91623121843EBFD
:1010F000E073C4E9162310BDA38923F48053A381B0
:1011000010BD00BF00207047F0B50C46898901F47E
:10111000807C0FFA8CFC83B0074616461D46BCF156
:10112000000F08D00223B4F90E1000930022002310
:101130000AF038FBA18921F48051A181B4F90E1085
:10114000384632462B4603B0BDE8F0400AF0D4BB27
:1011500010B582B00C460093B1F90E10D3170AF007
:1011600021FBA389B1F1FF3F08BFB0F1FF3F04BFEE
:1011700023F48053A38104D0C4E9160143F48053BF
:10118000A38102B010BD00BFB1F90E100AF0D6B9AC
:10119000C9B2F0B400294BD082070FD00378002BDE
:1011A00071D0994242D0431C05E013F8012B002A6C
:1011B0003BD091423AD09A071846F6D10368A3F182
:1011C000013222EA030241EA012712F0803F47EA96
:1011D00007471CD17B40A3F1013222EA030313F03D
:1011E000803F14D1021D02E014F0803F0FD1104661
:1011F00052F8043BA3F1013687EA030426EA03030D
:10120000A4F1013513F0803F25EA0404ECD0037803
:10121000002B38D0994209D0431C01E0914205D0FF
:10122000184613F8012B002AF8D11046F0BC70477D
:1012300083070BD00378002BF8D0431C03E002781F
:101240000133002AF2D099071846F8D10368A3F1B8
:10125000013222EA030313F0803F0AD1021D104637
:1012600052F8041BA1F1013424EA010111F0803F7E
:10127000F5D00378002BD9D0431C184601330278EF
:10128000002AFAD1D2E71846D0E700BF40EA010CA5
:101290001CF0070F40F02380BDF1100DCDE9024591
:1012A000CDE900676FF000064FF00007F0E8022379
:1012B000F1E80245A24282FA46FCA7FA86FC08BF82
:1012C000BCF1000F40F0ED80AB4283FA46FCA7FA78
:1012D00086FC08BFBCF1000F40F0DF80E6E710F0AD
:1012E000030C00F0278020F0030050F8042B5FEA85
:1012F000CC7C00F00B8080F0128011F801CB5FFAFB
:1013000092F3B3EB0C0C40F013808BB111F801CBCE
:101310005FFAA2F3B3EB0C0C40F00A8043B111F872
:1013200001CB5FFAB2F3B3EB0C0C40F001800BB9C8
:1013300060467047BDF1100DCDE90245CDE900676B
:101340006FF000064FF0000711F0030C40F0318001
:1013500010F0040F00F00E8050F8042B51F8044BED
:10136000A24282FA46FCA7FA86FC08BFBCF1000F35
:1013700040F0978011F0040F3FF498AF51F8045BF0
:10138000F0E80223AA4282FA46FCA7FA86FC08BFCC
:10139000BCF1000F40F07D80F1E80245A34283FAE2
:1013A00046FCA7FA86FC08BFBCF1000F40F06D8038
:1013B000E6E721F00301BCF1020F00F0228080F289
:1013C000408051F8045B00BF50F8043B4FEA1525FC
:1013D00083FA46FCA7FA86FCB7EB0C2F03EA162229
:1013E00008BFAA4240F0558051F8045BBCF1000FE1
:1013F00082EA03034FEA056208BF934240F041804E
:10140000E2E751F8045B00BF50F8043B4FEA154592
:1014100083FA46FCA7FA86FCB7EB0C4F03EA1642A8
:1014200008BFAA4240F0358051F8045BBCF1000FC0
:1014300082EA03034FEA054208BF934240F021804D
:10144000E2E751F8045B00BF50F8043B4FEA156532
:1014500083FA46FCA7FA86FCB7EB0C6F03EA166228
:1014600008BFAA4240F0158051F8045BBCF1000FA0
:1014700082EA03034FEA052208BF934240F001804D
:10148000E2E719BA12BA00F00EB819BA22BA00F09F
:101490000AB811BA2ABA00F006B819BA2ABA00F086
:1014A00002B811BA22BA9CFA8CF0DDE90067DDE9D6
:1014B00002451DF1100D38B1B0FA80F0C0F11800EE
:1014C00021FA00F122FA00F20120914298BF8041F6
:1014D000704700BF80EA0102844612F0030F4FD12B
:1014E00011F0030F32D14DF8044D11F0040F51F8F3
:1014F000043B0BD0A3F101329A4312F0803F04BFAA
:101500004CF8043B51F8043B16D100BF51F8044B92
:10151000A3F101329A4312F0803FA4F101320BD1C2
:101520004CF8043BA24312F0803F04BF51F8043B47
:101530004CF8044BEAD023460CF8013B13F0FF0FA4
:101540004FEA3323F8D15DF8044B704711F0010FD7
:1015500006D011F8012B0CF8012B002A08BF7047A8
:1015600011F0020FBFD031F8022B12F0FF0F16BF9F
:101570002CF8022B8CF8002012F47F4FB3D1704767
:1015800011F8012B0CF8012B002AF9D1704700BF8C
:1015900010B504468E2900F2A381DFE811F09F0107
:1015A0009D019B01990197019501930191018F0183
:1015B0008D018B010B01090107010501A101030147
:1015C0000101FF00FD00FB00F900F700F500F3004A
:1015D000F100EF00ED00EB00E900E700E500E300BB
:1015E000E100DF00DD00DB00A101A101A101A101FB
:1015F000A101A101A101A101D900D700A101A1016F
:10160000A101A101A101A101A101A101A101A101CA
:10161000A101A101A101D500A101D300D100A10127
:10162000A101A101CF00A101A101A101CD00A10152
:10163000A101CB00A101A101C900A101A101A1014A
:10164000A101A101A101A101A101A101A101C70065
:10165000A101C500C300C100A101A101BF00A101FA
:10166000A101A101A101A101A101A101A101A1016A
:10167000BD00BB00B900B700B500A101B300B100C7
:10168000AF00AD00AB00A900A700A500A300A1001A
:101690009F009D009B00A101A101A101990097005D
:1016A000A101A101A101A101A1019500A101A10137
:1016B000A101A101A101930091008F003E4810BD3E
:1016C0003E4810BD3E4810BD3E4810BD3E4810BDCE
:1016D0003E4810BD3E4810BD3E4810BD3E4810BDBE
:1016E0003E4810BD3E4810BD3E4810BD3E4810BDAE
:1016F0003E4810BD3E4810BD3E4810BD3E4810BD9E
:101700003E4810BD3E4810BD3E4810BD3E4810BD8D
:101710003E4810BD3E4810BD3E4810BD3E4810BD7D
:101720003E4810BD3E4810BD3E4810BD3E4810BD6D
:101730003E4810BD3E4810BD3E4810BD3E4810BD5D
:101740003E4810BD3E4810BD3E4810BD3E4810BD4D
:101750003E4810BD3E4810BD3E4810BD3E4810BD3D
:101760003E4810BD3E4810BD3E4810BD3E4810BD2D
:101770003E4810BD3E4810BD3E4810BD3E4810BD1D
:101780003E4810BD3E4810BD3E4810BD3E4810BD0D
:101790003E4810BD3E4810BD3E4810BD3E4810BDFD
:1017A0003E4810BD3E4810BD3E4810BD3E4810BDED
:1017B0003E4810BD3E4810BD6CA5010854A5010867
:1017C00040A5010848A201080CA5010824A50108AC
:1017D00080A30108A4A5010878A0010840A0010881
:1017E00048A101081CA2010838A10108B8A50108F8
:1017F0008CA10108FCA20108E8A40108D0A40108FA
:10180000BCA40108A4A4010884A4010864A40108DC
:1018100034A4010818A4010880A5010800A4010847
:10182000E4A30108D0A30108B4A30108A8A30108F8
:1018300094A3010870A3010858A3010844A3010858
:101840002CA301081CA3010814A30108F0A201089D
:10185000DCA20108C0A20108ACA201089CA20108F8
:1018600090A2010880A2010868A2010858A20108FC
:1018700030A201080CA20108FCA10108E4A10108A2
:10188000D0A10108B0A1010878A1010868A1010850
:1018900028A1010818A1010804A10108F8A0010865
:1018A000E0A00108D4A00108C0A00108ACA0010874
:1018B00098A00108114810BD114810BD114810BD75
:1018C000114810BD114810BD114810BD114810BD80
:1018D000114810BD114810BD114810BD114810BD70
:1018E00008461146002B14BF1A46224600F05AF84B
:1018F0000D4B002808BF184610BD00BF6CA00108A2
:101900005CA001082CA0010818A00108FC9F010898
:10191000F09F0108D89F0108C89F0108AC9F0108EB
:10192000A09F0108989F01084C94010810B5044637
:1019300009F0FEFD002221461346BDE81040FFF7E6
:1019400027BE00BF20F0030110F00300C0F100002B
:1019500051F8043B00F1040C4FEACC0C6FF000028C
:101960001CBF22FA0CF213434FF0010C4CEA0C2C72
:101970004CEA0C4CA3EB0C0222EA030212EACC1252
:1019800004BF51F8043B0430F4D013F0FF0F1FBF25
:10199000013013F47F4F013013F47F0F18BF013073
:1019A000704700BF0020704793682DE9F0479146CB
:1019B00007460E4673B38C6F14F4005F2ED0126886
:1019C00002F1080A5AF8042C5AF8085C5FEA9208F7
:1019D00016D0043D002401E0A0450FD0384655F84C
:1019E000041F324603F030FC0134431CF4D10023C1
:1019F000C9F80830C9F80430BDE8F087D9F80830D4
:101A0000A3EB8803C9F808300AF1080A002BD9D1E2
:101A10001846ECE753601846BDE8F08703F0E6FD92
:101A2000E5E700BF2DE9F04FAFB01D4688461446EC
:101A30000793049018B18369002B00F07C81A74BB9
:101A4000984500F07E81A64B984500F06E85A54B29
:101A5000984502BFA44B1B68D3F80C80012010A945
:101A60000CF008FFB8F80C2002F400731BB2002B36
:101A700000F0258102F400531BB24BB9D8F878303E
:101A800042F4005223F40053A8F80C20C8F8783030
:101A900002F008031BB2002B00F0ED80D8F81030E4
:101AA000002B00F0E88002F01A030A2B00F0F0800F
:101AB00000231EA90DF1770A8C4601910B93119119
:101AC0001393129300202346CAEB0101CDF808803E
:101AD000CDF800A003900D916446984698F8003028
:101AE000002B18BF252B00F04F8408F1010215468A
:101AF00001322B78252B18BF002BF8D1B5EB080647
:101B00000FD0129A1399C4F80080013289196660C7
:101B10000834072A1391129200F3D880039A92197D
:101B200003922B78002B00F06F850023194605F1F6
:101B300001088DF83B304FF0FF3B6B7806910D4666
:101B400008F10108A3F12002582A00F2D081DFE851
:101B500012F0F802CE01CE01C702CE01CE01CE01B5
:101B6000CE01CE01CE01CC02DB02CE011101470233
:101B7000CE016F0274027402740274027402740261
:101B8000740274027402CE01CE01CE01CE01CE01E8
:101B9000CE01CE01CE01CE01CE018502CE01CE0115
:101BA000CE01CE01CE01CE01CE01CE01CE01CE01BD
:101BB0007400CE01CE01CE01CE01CE015900CE017E
:101BC000CE019E02CE01CE01CE01CE01CE01CE01CC
:101BD000CE01CE01CE01CE01B502FF01CE01CE0174
:101BE000CE011E02FF01CE01CE012302CE01300242
:101BF0007600DF024202CE01FF02CE015B00CE0181
:101C0000CE01160145F01005AE06DDF81CA000F16E
:101C10008F81E80600F1C782690640F1C482BAF8F4
:101C20000060002756EA07000AF1040A0CBF0022F0
:101C30000122CDF81CA00123BDE045F0100515F0F0
:101C40002003DDF81CA040F0638115F0100140F086
:101C5000B78215F0400300F0B382BAF800600027A5
:101C600056EA07000AF1040A0CBF00220122CDF84F
:101C70001CA00B469FE00498414602F0AFF80028F4
:101C800064D1B8F80C2002F01A030A2B7FF410AFCD
:101C9000B8F90E30002BFFF60BAF02F400731BB245
:101CA000002B00F0958410A910980CF0E3FD049827
:101CB000414622462B4600F0F1FC039037E008F144
:101CC00060000CF07BFDB8F80C20D3E60498029974
:101CD00011AAFFF769FE88B91EAC1FE7208F010823
:101CE000008F0108E08E0108408F010804980299D6
:101CF00011AAFFF759FE002800F03C83DDF80880A8
:101D0000B8F80C3003F400731BB2002B00F0C08352
:101D1000109810A90CF0AEFDB8F80C30039803F041
:101D200040031BB2002B18BF4FF0FF300390039805
:101D30002FB0BDE8F08FFEF7DFFAB94B98457FF47E
:101D400082AEB84B1B68D3F8048087E6B8F80C3035
:101D500003F400731BB2002B00F02082109810A92E
:101D60000CF088FD4FF0FF300390E0E7069B0792F0
:101D70005B42069345F0040598F80030E0E6AA4877
:101D80008DF83B10AA060B90DDF81CA040F188816D
:101D90000AF1070222F00702D2E9006702F1080AFD
:101DA000CDF81CA0E80700F1A78356EA07000CBF96
:101DB0000022012202234FF000098DF83B90BBF175
:101DC000000FA8BF25F08005BBF1000F18BF42F03F
:101DD0000102002A00F0DB82012B00F08183022B3C
:101DE00000F05F830DF17700DC464FF0070AF10841
:101DF00006EA0A0241EA477130324FEAD70E0E4630
:101E0000D2B2774603460270013856EA070BECD18E
:101E1000E9070993E34600F191830198C71ACDF8C9
:101E200014B0059EB742A8BF3E46B9F1000F00D0DE
:101E3000013615F0020318BF023615F08409089325
:101E400040F0CA810698C6EB000BBBF1000F40F3CF
:101E5000C381764B1399129A0A93BBF1100F2FDDB1
:101E6000584623460C95CB464FF0100AB946049CC1
:101E7000029D3746064601E0102E1ADD48F64470F2
:101E80000132C0F601001031103E83E8010408332E
:101E9000072A13911292EFDD2046294611AAFFF777
:101EA00083FD002840F03E83102E1399129A1EAB3A
:101EB000E4DC1C460C9D33463E464F46D9469B46C5
:101EC0000A9B0132594484E808080834072A139110
:101ED000129240F383810498029911AAFFF764FDDE
:101EE00000287FF40BAF1399129A1EAC76E18DF89F
:101EF0003B10002B00F088838DF850300023012622
:101F00008DF83B3014AB374609930023059390E7D7
:101F10000AF1070323F00703D3E9006703F108037D
:101F200056EA070007930CBF00220122002342E774
:101F30000AF1070323F00703D3E9006703F108035D
:101F400056EA070007930CBF00220122012332E763
:101F5000AB068DF83B10DDF81CA040F188800AF13B
:101F6000070121F00701D1E9002308310791164646
:101F70001F46002A73F10000C0F20A8356EA0701E7
:101F80000CBF002201229DF83B90012317E745F08A
:101F9000400598F80030D3E598F8003042466C2BA5
:101FA00003BF08F1010845F02005537845F01005FE
:101FB000C6E5A8068DF83B1040F1F882DDF81CA0BC
:101FC000039ADAF80030D1170AF1040A1A6059604E
:101FD000CDF81CA082E545F0200598F80030AFE56B
:101FE000404610F8013B2A2B00F04083A3F1300259
:101FF000092A84BF80464FF0000B3FF6A3AD4FF097
:10200000000B10F8013B0BEB8B0B02EB4B0BA3F11E
:102010003002092A8046F4D94BEAEB7B92E500BFF7
:10202000208F0108408F0108E4A50108448F0108B2
:1020300045F0800598F8003082E540460022A3F183
:10204000300710F8013BA3F1300602EB8202092EA3
:1020500007EB42028046F2D9069273E545F010057F
:10206000AB068DF83B10DDF81CA03FF578AFEF060E
:1020700002D46E0600F1C582DAF800301E46F7176A
:102080000AF1040A32463B46CDF81CA071E7984895
:102090008DF83B10AA060B90DDF81CA03FF578AE3A
:1020A000EF0600F136826E0640F13382BAF8006026
:1020B0000AF1040ACDF81CA0002773E6079BDDF89F
:1020C0001CB01B68002201260BF1040B8DF8503068
:1020D00014AB8DF83B20CDF81CB03746099314E7BC
:1020E00045F0010598F800302AE5079ADDF81CA0B4
:1020F00012680692069800280AF10402FFF636AE2E
:1021000098F8003007921BE598F800302B2117E56E
:10211000079BDDF81CA01A687648302300278DF84D
:102120003C30164678230AF1040AD21B8DF83D3064
:1021300018BF0122CDF81CA045F002050B90022328
:1021400039E698F8003000297FF4FAAC2021F7E452
:10215000079B07981B680026099300F1040A8DF875
:102160003B60002B00F06582BBF1000F0998C0F2C4
:10217000538231465A46FEF7DFFC002800F06582A4
:10218000099B9DF83B90CDF81CA0C71A5F45C4BFC2
:102190005F4605963FF745AE059642E608F16000BA
:1021A0000CF046FBDAE5DAF80020002716460AF1C3
:1021B000040AD21B18BF0122CDF81CA00123FAE5A6
:1021C000DAF80020002716460AF1040AD21B18BFCD
:1021D0000122CDF81CA0EEE51399129A9DF83B3030
:1021E00063B10DF13B0301322360012301316360D0
:1021F0000834072A1391129200F33281089B5BB1D5
:102200000FAB013223600223023163600834072AD6
:102210001391129200F33081B9F1800F00F0C48065
:10222000059BC7EB030ABAF1000F43DDBAF1100FAB
:10223000DFF8C8902ADD534648460595BA46B146B0
:102240004FF0100B049D06461F4601E0102F16DDCF
:1022500001321031103F84E840080834072A1391F6
:102260001292F3DD2846029911AAFFF79DFB002880
:102270007FF444AD102F1399129A1EACE8DC3B4654
:102280003046059D57464E469A4681460132514496
:1022900084E800060834072A139112920ADD049894
:1022A000029911AAFFF780FB00287FF427AD13994C
:1022B000129A1EAC099B0132C91984E888000834BF
:1022C000072A1391129200F3BC806B0748D5069839
:1022D000851B002D44DD084B129A0A93102D2DDD2D
:1022E0001027DDF81090DDF808A00B460AE000BFCB
:1022F000D0A50108E4A50108448F0108548F010806
:10230000102D1ADD48F644700132C0F6010010337A
:10231000103D84E881000834072A13931292EFDD00
:102320004846514611AAFFF73FFB002840F00381C1
:10233000102D139B129A1EACE4DC194601320A9B45
:1023400012926918072A84E82800139108DD04987E
:10235000029911AAFFF728FB00287FF4CFAC13994C
:102360000398069A9642ACBF801980180390002902
:102370007FF4BCAC0023129398F80030002B18BFF8
:10238000252B1EAC7FF4B1AB4546FFF7CABB002B33
:1023900062D1EA0740F1818030238DF877300DF16A
:1023A00077030D9F09933AE50698C6EB000ABAF148
:1023B000000F7FF735AFBAF1100FDFF8DC922ADD9E
:1023C000534648460895BA46B1464FF0100B049D57
:1023D00006461F4601E0102F16DD01321031103F76
:1023E00084E840080834072A13911292F3DD284646
:1023F000029911AAFFF7D8FA00287FF47FAC102FBA
:102400001399129A1EACE8DC3B463046089D5746AD
:102410004E469A4681460132514484E8000608340B
:10242000072A139112927FF7FBAE0498029911AA22
:10243000FFF7BAFA00287FF461AC1399129A1EAC28
:10244000EEE60498029911AAFFF7AEFA00287FF48D
:1024500055AC13991EAC38E71EAB17460993DEE462
:102460000498029911AAFFF79FFA00287FF446AC5E
:102470001399129A1EACC1E60498029911AAFFF7AB
:1024800093FA00287FF43AAC1399129A1EACC3E673
:1024900008F160000CF0CCF93AE41F461EAB09933A
:1024A000BDE4DDF82CE0CDF814B00DF177014FF06C
:1024B0000F0A06EA0A027244330943EA07734FEA35
:1024C000171C12781E46674608460A70013956EAFC
:1024D000070BECD101990990DDF814B00F1A9EE4B6
:1024E000002F08BF0A2E32D230360DF177038DF857
:1024F00077600D9F099392E456EA070164D0302279
:102500008DF83C208DF83D3045F002050122022374
:1025100051E4DAF800200AF1040A16460027CDF843
:102520001CA03FE4A846FFF7EBBB594B1B68D3F850
:102530000880FFF793BAD046FFF7E2BB302A73D08A
:1025400001990990302203F8012C0F1A67E40DF16C
:10255000770A05945446304639460A22002304F08F
:1025600003FF30322270304639460A22002304F03D
:10257000FBFE06460F4656EA0700A24604F1FF346A
:10258000E9D10199CDF824A0059CCAEB010746E4E6
:10259000764267EB470756EA07024FF02D090CBF5A
:1025A000002201228DF83B90012308E4E90615D5AD
:1025B000DDF81CB00398DBF800300BF1040BCDF80C
:1025C0001CB01860FFF78ABA00220223FFF7F3BBA2
:1025D00008F160000CF02CF9FFF765BBDDF81CA0DA
:1025E0006A06DAF800304ABFDDF80CB00398A3F8A9
:1025F00000B00AF1040ACDF81CA058BF1860FFF71C
:102600006DBABAF900603AE5139BDDF8088023BB88
:1026100000231293FFF774BBFFF794F99DF83B90EA
:10262000CDF81CA00746B7E50199099BCF1AFFF723
:10263000F6BB184BCDF81CA0BBF1060F34BF5F46AC
:10264000062727EAE77609935FE49DF83B90CDF8EB
:102650001CA05F460590FFF7E4BB0498414611AA11
:10266000FFF7A2F90028D3D0FFF74ABBDDF81CA082
:1026700098F80130DAF800B00AF10402BBF1000F5B
:1026800007928046B8BF4FF0FF3BFFF759BA00BF33
:10269000408F0108F8A50108548F01082DE9F04783
:1026A0000C46E0B0256AB1F80CA00895896FA56AC0
:1026B000B4F80E901E9100264FF480770A952AF008
:1026C000020A20AD6946009504958046ADF80CA03D
:1026D000ADF80E90029705970696189619961A96D9
:1026E0001B96FFF79FF9051E07DB4046694602F07F
:1026F00041FDB04218BF4FF0FF35BDF80C3003F07C
:1027000040031BB21BB1A38943F04003A38118A867
:102710000CF04EF8284660B0BDE8F08770B50D4665
:102720001446064608F004FF31462A462346BDE813
:102730007040FFF777B900BF2DE9F04FC5B01D46D7
:102740008B461446814603F019F900681390FFF791
:10275000F9F80021149000200D95CDE91601B9F18A
:10276000000F04D0D9F81830002B00F014819B4BD7
:102770009B4500F017819A4B9B4500F08586994B4D
:102780009B4502BF984B1B68D3F80CB0012020A9D1
:102790000CF070F8BBF80C3003F4007212B2002A8F
:1027A00000F0E88003F4005212B24AB9DBF8782056
:1027B00043F4005322F40052ABF80C30CBF87820ED
:1027C00003F0080212B2002A00F0BA80DBF81020F1
:1027D000002A00F0B58003F01A020A2A00F0E78010
:1027E0000DF1D0080DF1CF0500230495C5EB0805C8
:1027F00006940F93CDF89C802993289319931893EE
:1028000009931B954446CDF81C90CDF820B0069D49
:102810002B78252B18BF002B00F044846A1C174628
:1028200001323B78252B18BF002BF8D1069DB7EB62
:10283000050910D0289D299E0698C4F804900135FA
:1028400020604E440834072D2996289500F399807E
:10285000099D4D4409953B78002B01F0AB807D1C10
:10286000069500234FF0FF3A0025069A0B938DF84A
:10287000773005957B7820202B21574699460132E9
:10288000A9F12003582B00F26381DFE813F0CE0199
:1028900061016101F4016101610161016101610195
:1028A00061014102B9006101B300D7016101F00289
:1028B000C802C802C802C802C802C802C802C802C8
:1028C000C802610161016101610161016101610190
:1028D000610161016101D9024D0261014D02610195
:1028E000610161016101840261016101950261017F
:1028F0006101610161016101AF0261016101FA01E0
:1029000061016101610161016101610161016101B7
:10291000610161010D021F024D024D024D023B0299
:102920001F0261016101F602610100030E0323032E
:10293000BD006101C3006101F30061016101450156
:102940004846594601F04AFABBF80C3000283FF4DB
:1029500042AF03F400731BB2002B00F0678720988E
:1029600020A94FF0FF340BF085FF0994099845B07A
:10297000BDE8F08F0BF160000BF020FFBBF80C30CE
:1029800010E70798089927AAFFF70EF8002840F0EB
:10299000BF8444465CE74846FDF7AEFC0F4B9B45C1
:1029A0007FF4E9AE104B1B68D3F804B0EEE6BBF938
:1029B0000E20002AFFF614AF03F400731BB2002BA5
:1029C00000F0908720A920980BF054FF4846594604
:1029D00022462B4601F082F90990C7E7208F0108B3
:1029E000008F0108E08E0108408F01080B9B0D95B8
:1029F0005B420B93059D45F00405059513783DE773
:102A00008DF87710137839E7059D45F02005059579
:102A1000137833E70D9D0D982D6806921195119945
:102A20000025BA46061D8DF87750002901F01E805A
:102A3000002F1198C1F2018029463A46FEF77CF832
:102A4000002801F0B18011990E95401AB8420C90FF
:102A500040F3F78627EAE7750A950E9D9DF87730D3
:102A60000D960C971595002B00F084800A9D01357A
:102A70000A957FE0059D0692AB06BA4640F1C081FB
:102A80000D9DEB1D23F00703D3E9006703F1080355
:102A900056EA07000D930CBF0022012201230021FA
:102AA0008DF87710BAF1000FA2BF059D25F08005C3
:102AB0000595BAF1000F18BF42F00102002A00F09C
:102AC0004F83012B00F0B484022B00F095840DF1AC
:102AD000CF00A6460724F10806EA040241EA47713E
:102AE000FD0830320E46D2B22F460346027001383E
:102AF00056EA0705EED1059D1193E907744640F1AA
:102B0000BF84302A00F0E486302203F8012CC0EBA9
:102B1000080311900C9335E3A24D06921995059D7B
:102B2000AE06BA4640F1B5800D9DEB1D23F00703BC
:102B3000D3E9006703F108050D95059DE80700F14D
:102B4000DA8456EA07000CBF002201220223A6E71E
:102B50000692B9F1000F00F02D8701250A95002398
:102B60000C952AAD8DF8A8908DF877301195002539
:102B70000E951595059B13F00203109302D00A9D44
:102B800002350A95059B13F08403129340F0BC8133
:102B90000B9D0A982F1A002F40F3B681102F299E03
:102BA000289DDFF810B22ADD5B46CDF86890BB4661
:102BB0004FF0100ADDF820901F4602E0BBF1100F25
:102BC00018DD013584E8800410360834072DABF198
:102BD000100B29962895F1DD0798494627AAFEF79C
:102BE000E3FE002840F0E282BBF1100F299E289DF1
:102BF0004446E6DC3B46DDF868905F469B4601357F
:102C0000C4F800B06760F6190834072D2996289596
:102C100040F37B810798089927AAFEF7C5FE002894
:102C200040F07683299E44466FE19DF87730002B73
:102C300040F030858DF8770013781FE6154615F8BB
:102C4000019BB9F12A0F01F02580A9F1300300277B
:102C5000092B2A463FF614AE002715F8019B07EB17
:102C6000870703EB4707A9F13003092B2A46F4D95C
:102C700047EAE77704E6059D45F0010505951378D9
:102C8000FCE5494D06921995059DAE06BA463FF5FD
:102C90004BAF059DED0640F1AB850D9D2B680435CE
:102CA0001E4600270D9548E701250A950D9D0D9BB1
:102CB000069204351B680D95012500220C952AAD5E
:102CC0008DF877208DF8A830119550E7059D069274
:102CD000AA06BA4640F1BE800D9DE91D21F007010C
:102CE000D1E9002308310D9116461F46002A73F1E1
:102CF0000000C0F2C08456EA07010CBF0022012286
:102D00000123CFE6059D45F0400505951378B5E50F
:102D10000D9D0D9B2D680B951D1D0B9B002BFFF62C
:102D200065AE13780D95A9E50D9D0692E91D21F07C
:102D3000070101F108050D954E68BA460F68334644
:102D40003A463846314643EC102BCDE9160103F0E4
:102D500035FD012840F0A184384631460022002389
:102D600004F0B2FA002840F0B8859DF877300325CA
:102D70000A9500250E95059D0C4A0D4925F0800504
:102D800005950325B9F1470FD8BF11460C950025CD
:102D90001191159567E6059D45F008050595137891
:102DA0006CE500BFE4A50108D0A5010800A6010854
:102DB00004A60108648F0108059D069245F01005E0
:102DC0000595059D15F02003BA4674D00D9DEB1DA9
:102DD00023F00703D3E9006703F1080356EA07006D
:102DE0000D930CBF00220122002358E6059D069298
:102DF00045F010050595059DAB06BA463FF540AE7A
:102E0000059DEF0640F1CA840D9D2A6800271646ED
:102E1000D21B18BF012204350D9501233FE615464C
:102E20000023A9F1300215F8019BA9F1300603EB4C
:102E30008303092E02EB43032A46F2D90B931FE5C5
:102E4000059D069245F010050595059DAA06BA4612
:102E50003FF542AF059DEB0640F1B2840D9D2B6816
:102E60001E46F717043532463B460D953EE7059D55
:102E700045F080050595137800E513786C2B154611
:102E800000F0A485059D45F010050595F6E4059D27
:102E90000692A80640F19E840D9D099A2B68D117D1
:102EA00004351A6059600D95B1E4059D069215F040
:102EB0002003BA468AD1059D15F0100100F0A484C4
:102EC0000D9D2A6800271646D21B18BF0122043523
:102ED0000D95E4E50D9B06921D1D0D95059D1A6847
:102EE00045F00205BA4605950027AC4D7821302300
:102EF0001646D21B8DF8783018BF01228DF8791054
:102F0000199502238946CAE5299E9DF877306BB151
:102F1000289D0DF17703236001350123636001369D
:102F20000834072D2996289500F30582109B63B17C
:102F3000289D1EAB236001350223636002360834EE
:102F4000072D2996289500F30082129D802D00F010
:102F500047810E9D0C9BC3EB050ABAF1000F3CDDC7
:102F6000BAF1100F289D8E4F24DDCDF838904FF028
:102F7000100BDDF8209002E0BAF1100F18DD0135DA
:102F800084E8800810360834072DAAF1100A299623
:102F90002895F1DD0798494627AAFEF705FD002888
:102FA00040F00481BAF1100F299E289D4446E6DCCA
:102FB000DDF83890013584E8800456440834072D44
:102FC0002996289509DD0798089927AAFEF7ECFCB1
:102FD000002840F09D81299E4446059DEB0564D460
:102FE000289D0C9B119863602060F6180135083409
:102FF000072D2996289500F37A81059D6B073CD50E
:103000000B9D0A982F1A002F37DD102F289DDFF80F
:1030100098B1C4BFDDF81CA04FF0100902DC1AE023
:10302000102F18DD0135C4F800B0C4F80490103634
:10303000103F0834072D29962895F1DD5046089950
:1030400027AAFEF7B1FC002840F06281102F299ECC
:10305000289D4446E6DC0135BE19072DC4F800B0B2
:1030600067602996289508DD0798089927AAFEF732
:103070009BFC002840F04C81299E099C0A980B9DDE
:10308000A842ACBF241864190994002E40F038817E
:103090000023069D28932B78252B18BF002B444630
:1030A0007FF4BCAB069FFFF7D6BBB9F1650F40F3C9
:1030B000DC80DDE916010022002304F0FBF8002883
:1030C00000F04D81289D374B01352360012363605B
:1030D00001360834072D2996289500F309841F9B93
:1030E0000F9DAB4202DB059DED0786D5289D149907
:1030F000139861600135206076180834072D2996F1
:10310000289500F36B840F9D05F1FF39B9F1000F8D
:103110007FF773AFB9F1100F289D214FC4BFDDF8C1
:103120001CB04FF0100A04DCF8E1B9F1100F40F3C5
:10313000F581013584E8800410360834072DA9F1A3
:10314000100929962895F0DD5846089927AAFEF718
:103150002BFC002840F0DC80299E289D4446E4E7B3
:10316000002B40F0E480059DEA075CBF0C93CDF88E
:10317000448007D51B9D30230C950DF1CF058DF8AC
:10318000CF3011950C9D9DF87730CDF838A055457E
:10319000B8BF55460A950025159564E4E4A50108D5
:1031A000748F010860980108648F0108CB46BBF852
:1031B0000C3003F400731BB2002B00F0B380209896
:1031C00020A90BF057FBBBF80C30099C03F040031F
:1031D0001BB2002B18BF4FF0FF340994FFF7C6BB9A
:1031E0000B9D0A98C0EB050ABAF1000F7FF7B1AE4C
:1031F000BAF1100F289DB04F23DDCDF840904FF06D
:10320000100BDDF8209002E0BAF1100F17DD013548
:1032100084E8800810360834072DAAF1100A299690
:103220002895F1DD0798494627AAFEF7BDFB00283F
:10323000BCD1BAF1100F299E289D4446E7DCDDF889
:103240004090013584E8800456440834072D2996BF
:1032500028957FF77EAE0798089927AAFEF7A4FB6A
:10326000002855D1299E444673E60F9D012D40F359
:10327000C881289D119801350123206063600136C3
:103280000834072D2996289500F3D8811499139AAC
:1032900061600135226076180834072D299628953B
:1032A00000F3D881DDE916010022002304F002F8C2
:1032B000002840F0EF80119B0F985A1C431E84E8B1
:1032C0000C00013E361801350834072D2996289543
:1032D00000F3A881189B1898F618013523AB2360DA
:1032E00060600834072D299628957FF786AE0798E9
:1032F000089927AAFEF758FB50B94446299E7CE658
:103300000798089927AAFEF74FFB00283FF4C0AEA4
:10331000DDF820B0BBF80C3003F400731BB2002BB7
:103320007FF44DAF0BF160000BF082FA47E70C928F
:10333000CDF8448026E70798089927AAFEF734FBC2
:103340000028E5D1299E4446F0E50798089927AA68
:10335000FEF72AFB0028DBD1299E4446F5E51F9A9B
:10336000002A40F3D182159D0F9F0F98AF42A8BF4E
:103370002F46119D002F05EB000B0BDD289D1199A9
:10338000676001352160F6190834072D29962895C4
:1033900000F36183159D27EAE777C7EB0509B9F1CB
:1033A000000F40F3D680B9F1100F289D424F40F333
:1033B000BD80CDF830B04FF0100ACB46DDF820903C
:1033C00003E0BBF1100F40F3AE80013584E88004C8
:1033D00010360834072DABF1100B29962895F0DD37
:1033E0000798494627AAFEF7DFFA00287FF4DEAEE9
:1033F000299E289D4446E4E7DDF864E00DF1CF0105
:10340000A4460F2406EA04027244330943EA077310
:103410003D0912781E462F4608460A70013956EAC1
:103420000705EED1C0EB0803119064460C93A9E6A2
:10343000002F08BF0A2E08D21B9D30360C950DF1C7
:10344000CF058DF8CF6011959CE60DF1CF05304684
:1034500039460A22002303F087FF30322A703046B3
:1034600039460A22002303F07FFF06460F4656EA3C
:103470000700AB4605F1FF35E9D1CDF844B05B4616
:10348000C3EB08030C937DE60C4B1B68D3F808B024
:10349000FFF77CB90F9901F1FF39B9F1000F7FF700
:1034A00019AFB9F1100F044FC4BFDDF81CB04FF0D5
:1034B000100A09DCDAE000BF748F0108408F0108B0
:1034C000B9F1100F40F3D280013584E88004103642
:1034D0000834072DA9F1100929962895F0DD5846E2
:1034E000089927AAFEF760FA00287FF411AF299EF9
:1034F000289D4446E4E70022022356EA07013FF4F0
:10350000CEAA059D8DF87990302345F002058DF8FF
:103510007830059501220223FFF7C1BA4E440135E8
:1035200084E8800263E5D946DDF830B0013584E8EF
:1035300080024E440834072D2996289509DD079806
:10354000089927AAFEF730FA00287FF4E1AE299EF9
:103550004446119D15981F9B05EB000A0F9DAB4239
:1035600080F26A81289D149913986160013520606A
:1035700076180834072D2996289500F39D810F9D14
:10358000CAEB0B07EB1ABB42B8BF1F46002F0BDD7F
:10359000289DC4F800A001356760F6190834072D8E
:1035A0002996289500F37A8127EAE777C7EB030984
:1035B000B9F1000F7FF721ADB9F1100F289DB44F7D
:1035C000C4BFDDF81CB04FF0100A03DCA6E7B9F168
:1035D000100FA3DD013584E8800410360834072D70
:1035E000A9F1100929962895F1DD5846089927AACE
:1035F000FEF7DAF900287FF48BAE299E289D444619
:10360000E5E7059DEA073FF534AE289D119A01359F
:1036100001232260636001360834072D299628951E
:103620007FF758AE0798089927AAFEF7BDF900283A
:103630007FF46EAE4446299E289D4BE60798089974
:1036400027AAFEF7B1F900287FF462AE299E289DD3
:1036500044461BE60798089927AAFEF7A5F9002813
:103660007FF456AE299E289D44461BE64E44013504
:1036700084E8800228E6764267EB470756EA0702AD
:103680004FF02D038DF877300CBF0022012201236B
:10369000FFF708BA1378FFF7F1B83A46334643EC20
:1036A000102B03F08BF8002800F0DD80BAF1FF3F0B
:1036B00029F0200B08BF4FF0060A07D0BBF1470FD7
:1036C00004D1BAF1000F08BF4FF0010A059D002E8A
:1036D00045F480751095C0F2888200250E95BBF1E7
:1036E000460EDEF1000C5CEB0E0CBCF1000F40F05E
:1036F000CA81BBF1450F40F0768221A93A460AF112
:1037000001053346009122A943EC102B01912A4672
:10371000079802211FAB00F07FFC11904519384635
:1037200031460022002303F0C5FD50B9229B9D4283
:1037300098BF1D4605D9302203F8012BAB422293D6
:10374000FAD11199BBF1470FC1EB05050F9500F0B8
:10375000CA81B9F1650F40F3BE82B9F1660F1F9AB5
:1037600000F057820F9DAA42C0F24482059DED07EA
:1037700000F1648222EAE2750A950C924FF0670923
:1037800015920E9D002D00F0A5812D23109D8DF822
:103790007730002305950E93FFF768B9059D15F066
:1037A000400F0D9D3FF431AB2E88002756EA0700ED
:1037B0000CBF0022012204350D950123FFF76FB9DC
:1037C000059D15F0400F0D9D3FF449ABB5F9006024
:1037D000FFF747BB059DE9063DD4059D6A063AD52E
:1037E0000D9D2B6804350D95099D1D80FFF70FB8C1
:1037F000059D15F0400F0D9D3FF450AA2E8804350D
:103800000D950027FFF799B9059D15F040030D9D13
:103810003FF457AB2E88002756EA07000CBF002262
:10382000012204350D950B46FFF739B90BF1600005
:103830000AF0FEFFFFF793B8059DE9077FF59FAEFD
:1038400090E60C9B0D9623EAE3730A9315959DF879
:103850007730FFF708B90D9D2B6804350D95099D4C
:103860001D60FEF7D4BF03250A95059D094A0A4944
:103870009DF877300E9025F08005B9F1470FD8BF3D
:1038800011460595032511910C951590FFF7EBB89E
:10389000748F010808A601080CA60108079808996A
:1038A00027AAFEF781F800287FF432AD0F9C1F9BFA
:1038B000299EE31A444677E60798089927AAFEF757
:1038C00073F800287FF424AD1F9B299E444656E6DA
:1038D000119DC5EB08050C9554E42D238DF8773028
:1038E000FFF745BA0BF160000AF0A2FFFFF76AB8D4
:1038F0000798089927AAFEF757F800287FF408AD23
:10390000299E4446FFF7EBBB289DAD4B0135236054
:103910000123636001360834072D299628953DDC84
:103920002AB90F9D1DB9059DE8077FF566AB289D57
:1039300014991398616001357618072D206004F101
:1039400008032996289500F34181C2F10009B9F1D5
:10395000000F63DDB9F1100F9A4F4BDD1024DDF835
:103960001CA0DDF820B002E0B9F1100F42DD0135F6
:103970001F605C6010360833072DA9F110092996E5
:103980002895F1DD5046594627AAFEF70DF8002884
:103990007FF40DAC299E289D4346E5E707980899DA
:1039A00027AAFEF701F800287FF4B2AC1F9A299EDF
:1039B0004446B5E7299BDDF81C90DDF820B0002BCC
:1039C00040F0E88000232893FFF7F1BB059B43F00C
:1039D0002003059301326B78FEF750BF07980899D2
:1039E00027AAFDF7E1FF00287FF492AC299E444608
:1039F000FFF789BB013583E880024E440833072D69
:103A0000299628950ADD0798089927AAFDF7CCFF83
:103A100000287FF47DAC299E289D43460F9C3619D3
:103A2000119C01351C600F9C072D5C6003F108049C
:103A3000299628957FF7E1AA59E4FDF783FF0E95B3
:103A400020EAE0750A950E9D0C909DF877300D9652
:103A50001595FFF708B80798089927AAFDF7A4FF5E
:103A600000287FF455AC299E444693E4062F34BFCA
:103A70003B46062323EAE3750A95534D0C930D96B6
:103A80001195FFF774B8032121A83A4633460090F8
:103A900022A843EC102B019052460798CDF80CC099
:103AA0001FAB00F0B9FABBF1470F1190DDF80CC065
:103AB00002D1059DED0713D5119800EB0A05BCF165
:103AC000000F3FF42CAE0378302B00F0BF801F9B1B
:103AD000ED1824E6109D9DF877300595FEF7C3BFDD
:103AE000229B1B1A0F931F9BD91C1A4602DB9A4577
:103AF000BFF638AEA9F10209013B002B1F938DF8E8
:103B00008C90C0F2B8802B228DF88D20092B40F3C9
:103B10008D8046F267650DF19A01C6F2666585FBF8
:103B20000320DA17C2EBA00000EB80060A46A3EBE5
:103B3000460303F130011170511E09280346EEDCE3
:103B400030330DF19B05D8B28D4202F8010C40F2E2
:103B5000BF800DF18D01134601E013F8010BAB425C
:103B600001F8010FF9D144ADC2EB4503F63B23AA9E
:103B70009A1A0F9D0F9B18929B18012D0C9340F3DE
:103B800095800C9B013323EAE3750A9500250C937D
:103B90001595F6E54846594627AAFDF705FF002882
:103BA0003FF410AFFFF703BB27EAE7750E900A95C5
:103BB0009DF877300D960C971590FEF754BF00BF17
:103BC00060980108748F0108F8A501080798089902
:103BD00027AAFDF7E9FE00287FF49AAB1F9A299ED9
:103BE000289D4346B1E602214EE72D2506F1004609
:103BF0000E9574E5002A0F9BD4BFC2F102094FF065
:103C000001094B4423EAE3750C930A954FF06709C9
:103C1000B6E5002A34DDBAF1000F24D1059DEB078B
:103C200021D422EAE2750A950C92A9E530333022BC
:103C30008DF88F308DF88E2024AB98E7531C23EA43
:103C4000E3750C930A954FF0670999E538463146BC
:103C50000022002303F02EFB00287FF438AFCAF1C6
:103C600001031F9334E70AF10103D31823EAE37534
:103C70000C930A9584E52D225B428DF88D2045E753
:103C8000BAF1000F1DD1059DEE071AD401250A9542
:103C90000C9575E50D9B1F681E1D002F53780D9622
:103CA0002A46B8BF4FF0FF37FEF7E8BD059D15F077
:103CB00001037FF466AF0C9D159325EAE5750A951F
:103CC0005FE50AF1020323EAE3750C930A9557E5D1
:103CD0000DF18E034BE71F9B0EE700BF2DE9F04768
:103CE0000C46E0B0256AB1F80CA00895896FA56A6A
:103CF000B4F80E901E9100264FF480770A952AF0B2
:103D0000020A20AD6946009504958046ADF80CA0E6
:103D1000ADF80E90029705970696189619961A9682
:103D20001B96FEF709FD051E07DB4046694601F0BC
:103D300021FAB04218BF4FF0FF35BDF80C3003F048
:103D400040031BB21BB1A38943F04003A38118A811
:103D50000AF02EFD284660B0BDE8F08770B50D462C
:103D60001446064607F0E4FB31462A462346BDE8E2
:103D70007040FEF7E1BC00BF70B504460D4607F089
:103D8000D7FB18B107F0D4FB836953B107F0D0FB20
:103D9000064B22461C68A1682B46BDE87040FDF723
:103DA00041BE07F0C5FBFCF7A7FAEFE7408F01081B
:103DB00070B50E461546044618B183690BB9FCF779
:103DC0009BFA054B20461C68A16832462B46BDE88D
:103DD0007040FDF727BE00BF408F010838B505468B
:103DE0000C4607F0A5FB20B107F0A2FB8369002B6E
:103DF0004ED03D4B9C4252D03C4B9C4268D03C4BF9
:103E00009C4202BF3B4B1B68DC68A38903F008029D
:103E100012B219466AB12269DAB113F0010124D154
:103E200003F002031BB203B96169A16022B3002051
:103E300038BD03F0100212B2002A4DD001F0040187
:103E400009B200292FD1226943F00803A381002A77
:103E5000E3D103F42071B1F5007FDED0284621467E
:103E600001F0A4FDA3892269D7E7636900215B42C1
:103E7000A160A361002ADAD1A38903F0800109B20D
:103E80000029D4D043F04003A3814FF0FF3038BD68
:103E900007F04EFBFCF730FA134B9C42ACD1154BAC
:103EA0001B685C68B1E7616B49B104F1440291425F
:103EB00003D0284601F0D2FAA3890022626323F0DE
:103EC000240322691B0400211B0C61602260BBE7F4
:103ED000084B1B689C6898E741F0400109232B6060
:103EE0004FF0FF30A18138BD208F0108008F0108FD
:103EF000E08E0108408F01082DE9F84F03690F6932
:103F00009F42824600F38580FB1C9B0001EB030B64
:103F1000C318DBF804205B680132B3FBF2F801F14F
:103F20001404013F0BF1040B00F11409B8F1000F68
:103F30003AD000254A4623462E4653F804CB106853
:103F40001FFA8CFE4FEA1C4C08FB0E5E08FB0CF5BA
:103F500005EB1E4516FA80F61FFA85FC1FFA8EFE49
:103F6000CEEB0606CCEB104000EB2640B6B246EA9C
:103F7000004642F8046B2D0C06149B45DDD23B1D18
:103F80000AEB83035A687AB91A1D99450AD252F886
:103F9000042C3AB9043B02E01A68043B12B9013F11
:103FA0009945F9D3CAF81070504601F0FFFF002878
:103FB0002CDB08F101084B46002254F8046B1D6805
:103FC000B1B2A8B2360C411A8918C6EB154202EB01
:103FD000214289B241EA02411214A34543F8041B6D
:103FE000EBD23B1D0AEB83035A687AB91A1D994537
:103FF0000AD252F8042C3AB9043B02E01A68043B96
:1040000012B9013F9945F9D3CAF810704046BDE88E
:10401000F88F0020BDE8F88F2DE9F04FC5699DB0FD
:1040200006460291269C069207935BEC10AB002D8E
:1040300000F08F82296851B16B68012202FA03F205
:104040004B608A6001F05EFDF36900221A60BBF1EB
:10405000000937DB0023236000231A46C7F6F073FC
:10406000C7F6F07209EA0303934216D00022002338
:104070005046594654465D4603F01CF9002827D0A7
:10408000079A01231360279B002B00F0CC809E48E9
:10409000186001381DB0BDE8F08F079942F20F7328
:1040A0000B60BAF1000F00F0A5809848279A002A0B
:1040B000F0D0C378002B00F0478200F10803279965
:1040C0000B60E7E729F0004901232360CB46C3E7F3
:1040D000304645EC104B1BA91AAA02F07FF8C9F331
:1040E0000A570E90002F40F08E80DDF868801B9FED
:1040F0006FF4826347449F42C0F252824FF60E43F0
:10410000CFF6FF73DB1B07F2124209FA03F32AFA18
:1041100002F243EA020002F0EFFD0123013FA1F1A8
:10412000F871189300230022C3F6F87302F0A6FC7E
:104130006FA3D3E9002302F055FE6FA3D3E9002358
:1041400002F09EFC044638460D4602F0E5FD6CA3E5
:10415000D3E9002302F046FE02460B4620462946DC
:1041600002F08EFC04460D4603F0D6F82946059071
:1041700000222046002303F0A7F8002840F0008228
:10418000059A162A00F2E281614B03EBC203D3E9E0
:10419000000152465B4603F0B5F8002800F0FE81AE
:1041A000059B0021013B05931291C7EB0807013FD6
:1041B00000F1E181002108970C91059A002AC0F2D4
:1041C000D181089B11929B18002108930F91029BAB
:1041D000092B2AD80125052B02DD043B029300257B
:1041E00002998B1E032B22D8DFE813F058035503E6
:1041F00046032302454B474AC9F3130000280CBF6E
:104200001046184652E72BF07F4323F4700343F027
:104210007F530022504643F44011A7F2FF37DDF8E8
:10422000688018927EE73C4834E700230293F569E2
:10423000002421466C60304601F030FCF3692860B0
:104240001B6806944FF0FF31012209910D931092E3
:1042500013911B9B002BC0F2BB8005990E2900F324
:10426000B780069AD30F2A4A02EBC10292ED007B77
:1042700009990029CCBF002303F001038DED027BD7
:10428000002B40F0508453EC172B5046594602F057
:10429000D3FE03F041F8804602F03EFDDDE9022343
:1042A00002F0A0FD02460B465046594602F0E6FBDE
:1042B000099A0D9F08F13003012A04460D4607F8BC
:1042C000013B5AD000230022C4F2240302F08AFDED
:1042D0000022002304460D4602F0ECFF002840F0C7
:1042E00022810D9A099B02F1020A02EB030920E0E8
:1042F00061436F63A787D23FB3C8608B288AC63FEC
:10430000FB799F501344D33F619801081CA6010814
:10431000988F010810A601086098010802F062FD5C
:104320000022002304460D4602F0C4FF002840F09E
:10433000FA80DDE902232046294602F07DFE02F0E4
:10434000EBFF804602F0E8FCDDE9022302F04AFDC3
:1043500002460B462046294602F090FB08F1300742
:1043600000230022CA450AF8017C044657460D4640
:10437000C4F224030AF1010AD0D122462B4620467A
:10438000294602F07DFB04460D462246DDE9020186
:104390002B4602F099FF002800F04285059917F896
:1043A00001AC19910D9A02E013F801AC1F467B1E77
:1043B000BAF1390F40F002859342F5D119990D9267
:1043C000013105910D9930220A7031221A70AAE04C
:1043D0001099002940F0EC80109B0F9D0C9C0A93D3
:1043E00008990029C8BF002C09DD0B460C9AA3428E
:1043F000A8BF2346D21AC91A0C92E41A08910F9B3F
:10440000002B1ADD1099002900F04F84002D10DDDB
:104410000A992A46304601F01DFD0A900A990E9A23
:10442000304601F075FC0E990746304601F06AFBF4
:104430000E970F9B5A1B40F070840121304601F00B
:104440005DFC11990029804605DD41463046119AF0
:1044500001F000FD8046029A012A40F3D080002539
:10446000119A0120002A40F037830899431813F06D
:104470001F0300F09182C3F12002042A40F32F852C
:104480000C9AC3F11C03D218C9180C92E4180891B5
:104490000C9B002B05DD30460E991A4601F02CFDD1
:1044A0000E900899002905DD41463046089A01F032
:1044B00023FD8046129A002A40F018830299099A37
:1044C0000229D4BF00230123002AC8BF0023002BE8
:1044D00000F01A820999002940F010824146052215
:1044E000099B304601F02AFB804641460E9801F0B8
:1044F0005DFD002840F302820D9F312307F8013B48
:10450000059B0133059300253046414601F0FAFA38
:104510000A9A42B1954218BF002D40F04B823046B6
:104520000A9901F0EFFA0E99304601F0EBFA059A7C
:104530000799531C00223A70279A0B60002A00F05A
:104540003E8217600D98A5E5C31CB8E501221292C2
:104550002BE61020FCF736F8F061456085600560B9
:10456000C56074E50C9A059BD21A0C925942002240
:104570000F9111922BE67F4200230C9708931CE6C3
:10458000059802F0C9FB22462B4602F093FE002854
:104590007FF4F6AD059901390591F1E5129004E635
:1045A0004FF6EE30CFF6FF70C01B0AFA00F0B2E50E
:1045B000029A012A40F3D283099A0F9B551EAB42FF
:1045C000BFBF0F99119A0F95C1EB0503B4BFD21865
:1045D000C5EB0305099BBCBF11920025002BC0F25F
:1045E000C5830C9C099B0C9AD2180C92089A3046F1
:1045F000D2180121089201F081FB0A90F0E6BAF18D
:10460000000F7FF42CAFCBF313025546002A7FF442
:1046100027AF0025C7F6F0750BEA0505002D3FF41E
:104620001FAF0C9B0899013301310C9308910125B0
:1046300016E701211091069A059BD21802F1010993
:10464000B9F1000F139240F32883B9F10E0F8CBF1C
:10465000002505F00105CDF82490F4690023B9F197
:10466000170F636009D9012204235B0003F11401D1
:10467000104601324945F8D960603046616801F062
:104680000DFAF36920601B680D93002D3FF4E1AD36
:1046900005990029CDE90AAB40F398819F4B01F0C1
:1046A0000F020F1103EBC203F906D3E9004540F1F5
:1046B0007C819B4B50465946D3E9082302F0BCFC51
:1046C00007F00F0782468B464FF003088FB1DFF8E3
:1046D000509220462946FA0705D5D9E9002302F071
:1046E00081FB08F101087F1009F10809F3D10446A4
:1046F0000D465046594622462B4602F09DFC824606
:104700008B46129B53B10023504659460022C3F6F4
:10471000F07302F0D9FD002840F0CF82404602F04D
:10472000FBFA52465B4602F05DFB00230022C4F216
:104730001C0302F0A5F9A1F150750999044600295E
:1047400000F0BF80059ADDF824901992109B002B91
:1047500000F06781714B002103EBC90353E9022389
:104760000020C3F6E07102F067FC22462B4602F0FF
:1047700085F9CDE914015046594602F0CDFD0746B2
:1047800002F0CAFA02460B465046594602F076F944
:1047900007F1300A0D9F04460D465FFA8AFA07F8C2
:1047A00001ABDDE9140122462B4602F0ABFD0028E7
:1047B00040F0D082002122462B460020C3F6F07143
:1047C00002F05CF902460B46DDE9140102F09AFDA5
:1047D000002840F07D83B9F1010F40F3F4800D997A
:1047E00016968944B846CB46DDE914670FE00021F0
:1047F0000020C3F6F07102F041F932463B4602F068
:1048000063FD002840F0D582D84500F0DB8000230E
:104810000022C4F224033046394602F0E3FA0023B2
:104820000022C4F2240306460F462046294602F021
:10483000D9FA0D46044602F06FFD814602F06CFA8B
:1048400002460B462046294602F018F909F13009C4
:104850005FFA89FA08F801AB32463B4604460D463A
:1048600002F032FDC14622462B460028BFD01999DE
:10487000169E0591474656E601231093069B002B92
:1048800040F3028299460E2B8CBF002505F00105EE
:1048900013930993E1E600211091CCE600221092D7
:1048A000ECE7404602F038FA52465B4602F09AFACC
:1048B00000230022C4F21C0302F0E2F80446A1F136
:1048C000507500230022C4F214035046594602F0EA
:1048D000D5F822462B468046894602F013FD07464E
:1048E000002840F09980224605F1004340464946A1
:1048F00002F0EAFC002866D0B8460A97069A0D9F97
:10490000D24305920025FFE51099002940F0378138
:1049100000240E9D099FDDF834900AE0988F01086D
:1049200088900108294630460A22002301F006F942
:10493000054641462846FFF7DFFA303009F8040003
:104940000134BC42EEDB0D9F09990E958346012987
:10495000ACBF7F180137002501220E99304601F0C7
:10496000CBFA41460E9001F021FB002840F32F8244
:1049700017F8012C0D9902E013F8012C1F467B1E3D
:10498000392A40F061828B42F6D1059A0D990132A5
:10499000312305920B70B7E51C230C99089AC918AE
:1049A000D2180C91E418089272E5DDE90AAB4FF0D9
:1049B00002088BE63046294601F0A4F8AFE50D98D1
:1049C000FFF768BB169EDDE90AAB42E4059A544244
:1049D000002C00F09D81AA4B04F00F0203EBC203F0
:1049E000DDE90A01D3E9002302F0FCF92411824633
:1049F0008B4600F06382A34D4FF00208E30705D514
:104A0000D5E9002302F0EEF908F101080835641039
:104A1000F4D182468B4674E64FF00008CDF828802A
:104A20006AE5974909F1FF3201EBC2012B46149266
:104A3000D1E90001224602F0D5F9CDE91601594627
:104A4000504602F069FC804602F066F902460B46C9
:104A50005046594602F012F80D9F08F13008B9F19E
:104A6000010F04460D4607F8018B22D00D994B1E0D
:104A7000884699442046294600230022C4F2240394
:104A800002F0B0F90D46044602F046FC824602F000
:104A900043F90AF1300A02460B462046294601F046
:104AA000EDFF08F801AFC845E6D1149A04460D465B
:104AB000BF1800230022C3F6E073DDE9160101F000
:104AC000DFFF22462B4602F0FFFB002800F02C817E
:104AD00017F801AC0D9A6AE4D8F8103008EB83039C
:104AE000186901F0BFF8C0F12000BEE40E984146FD
:104AF00001F05CFA0028BFF6E1AC0E9900233046C5
:104B00000A2201F01BF8059B10990E90013B0593BA
:104B100009BB139B002B03DC0299022900F3E481FB
:104B2000139A0992F4E6099B002B40F05E81002362
:104B30000022C4F21403DDE9020102F053F95246E7
:104B40005B4602F0D5FBDDF82480CDF828800028F4
:104B50007FF4D4AED0E400230A220A99304600F054
:104B6000EDFF139A02990A90002ACCBF002301237B
:104B70000229D8BF0023002B40F0AD810992002C00
:104B800005DD30460A99224601F0B6F90A90DDF8B3
:104B90002890002D40F02E810D9A099B0A9DD31874
:104BA0000AF00101C346DDF838800C93541C0891CB
:104BB00059464046FFF7A0F929460746404601F00E
:104BC000F5F959464A468246304601F00DFA621E12
:104BD0000992C26807F1300103460691002A3DD0D0
:104BE000012219463046019200F08CFF019A029B87
:104BF000134303D10899002900F05281BAF1000F44
:104C0000C0F2B880029B5AEA030303D10899002935
:104C100000F0B080002A00F322810C9B069A9C428F
:104C200004F8012C274600F02B8141460A2200237C
:104C3000304600F083FF4D45804617D029460A22B2
:104C40000023304600F07AFF494605460A223046E6
:104C5000002300F073FF01348146A9E7194640465E
:104C6000019301F0A3F9019B0246BAE729463046B9
:104C70000A22002300F062FF01340546814697E7CF
:104C8000988F0108889001080123139309930693D4
:104C9000F469002262601D40EFE4B9F10E0F8CBF91
:104CA00000230123CDF82490F2E730460E990F9AA5
:104CB00001F0D0F80E90FFF7C0BB099900293FF42E
:104CC000F0AD139A002A7FF77EAE00230022C4F2D3
:104CD00024035046594602F085F8824608F1010047
:104CE0008B4602F019F802460B465046594602F030
:104CF00079F80023C4F21C03002201F0C1FE059BD9
:104D0000DDF84C90013B04461993A1F150751DE567
:104D1000DDE90AAB4FF00208F3E430460E9901F0EA
:104D200099F80E90FFF789BB0021DDE916230020DA
:104D3000C3F6E07101F0A2FE22462B4602F0E2FA31
:104D400000283FF440AE3B461F46013B17F8012CBC
:104D5000302AF9D0199B0593FFF7E5BB1899002974
:104D600076D003F233430F9D0C9C3CE40C99CC1A93
:104D7000002338E4CDF83880D846DDF818B0002A92
:104D80005C460FDD01220E99304601F0B5F8414630
:104D90000E9001F00BF9002840F39380392C07F1B5
:104DA000310B75D0099FCDF8289007F801BBFFF7AC
:104DB000ABBB4F460D9A169EFFF7F9BA0D921999A3
:104DC0000AF10102D2B205911A70FFF7ACBB03D110
:104DD0001BF0010F7FF4CCAD3B461F46013B17F89B
:104DE000012C302AF9D0FFF78FBB4FF00008CDF827
:104DF000288083E50A9A3046516800F04FFE0A99F0
:104E00000B699A1C044692000C3100F10C00FBF770
:104E10000FFF30462146012201F06EF88146BBE6C5
:104E2000DDE9020122462B4602F044FA00283FF455
:104E30007AAB18F0010F3FF476AB059A17F801AC86
:104E400019920D9AFFF7B3BA01321A70FFF75CBBE3
:104E50001A9B0F9D0C9CC3F13603FFF7C4BBCDF822
:104E60003880D846DDF818B0BBF1390F10D0099F53
:104E7000CDF828900BF1010307F8013BFFF744BB85
:104E8000CDF83880CDF82890D846DDF818B063E525
:104E9000099FCDF82890392207F8012B0D996EE56E
:104EA000CDF83880D846DDF818B0BBF1390FEFD017
:104EB000BAF1000FC8BF07F1310B73E74FF00208DA
:104EC0001FE47FF46FAF1BF0010F3FF46BAF65E79A
:104ED0000D9AFFF76CBA139A0992FFF7FBBA3FF4E9
:104EE000D7AAC3F13C0358E5139B0993FFF7F2BA25
:104EF000F0B50C4683B00546002976D010B1836921
:104F0000002B60D03A4B9C4262D03A4B9C4268D016
:104F1000394B9C4202BF394B1B68DC68012001A958
:104F200009F0A8FCA38903F400731BB204F1600725
:104F3000002B39D02846214600F01CF9236B064689
:104F40003BB12846216A984736EA200628BF4FF031
:104F5000FF36A38903F080031BB2002B3CD1616BA9
:104F600041B104F14403994202D0284600F076FA98
:104F700000236363A16C21B1284600F06FFA00237F
:104F8000A364FBF7A1F90023A381384609F050FC84
:104F9000384609F00DFCFBF79DF9019801A909F0CD
:104FA00069FC304603B0F0BD384609F007FCB4F99F
:104FB0000C60002EBED1384609F03AFC019801A9D8
:104FC00009F058FCEDE7FBF797F9094B9C429CD19F
:104FD0000A4B1B685C68A1E72846216900F03EFA8D
:104FE000BDE7064B1B689C6898E70E46D9E700BFF3
:104FF000208F0108008F0108E08E0108408F010812
:1050000010B5044606F094FA2146BDE81040FFF7BB
:105010006FBF00BF8B8903F0080212B22DE9F04187
:105020000D468046002A3FD14A6843F40061002AB9
:10503000A9815DDDEC6A002C4FD003F480531EB2D1
:105040000023D8F80070C8F80030002E54D0AA6DA4
:1050500001F0040109B229B169686B6B521A0BB1F6
:105060002B6CD21A00234046296AA047421C4ED01E
:10507000AB892A6903F4805123F40063AB8109B240
:10508000002385E80C00002950D1696BC8F8007036
:1050900019B305F14403994202D0404600F0DEF90D
:1050A00000206863BDE8F0810E69B6B19B070C680B
:1050B00008BF4B690E6018BF0023A41B8B600AE079
:1050C00032462346AF6A296A4046B8470028C0EBFB
:1050D0000404064404DD002CF2DC0020BDE8F0816D
:1050E000AB8943F04003AB814FF0FF30BDE8F08166
:1050F0002A6C002A9EDCF0E7296A324601234046EA
:10510000A047411C024622D0A989EC6AA0E7D8F842
:1051100000307BB9AA8929696B6002F480531BB205
:1051200022F40062AA812960002BAED0C317A865C3
:10513000EB65AAE71D2B01D0162B15D1AA892B6987
:1051400022F40062AA8100226A602B609DE7D8F8F1
:105150000030002BD8D01D2B18BF162BC0D1C8F89B
:1051600000703046BDE8F081AB8943F04003AB816D
:10517000BDE8F08130B50B6983B00C46054693B1AC
:1051800010B18369002B2AD0204B9C422CD0204B9D
:105190009C422DD01F4B9C4202BF1F4B1B68DC68FA
:1051A000B4F90C301BB90025284603B030BD0120EE
:1051B00001A909F05FFBA38903F400731BB203B3D9
:1051C00028462146FFF726FFA38903F400731BB28C
:1051D00005468BB1019801A909F04CFBE4E7FBF708
:1051E0008BF80A4B9C42D2D10B4B1B685C68D7E70B
:1051F000094B1B689C68D3E704F1600009F018FBB9
:10520000E8E704F1600009F0D9FAD9E7208F010836
:10521000008F0108E08E0108408F010810B5044698
:1052200030B106F085F92146BDE81040FFF7A2BF76
:10523000034B04491868BDE81040FBF759B900BF9B
:10524000408F0108755100082DE9F043144683B0E2
:1052500007460E46012001A909F00CFBA38903F4BF
:10526000007212B2002A6FD003F4005212B232B9A7
:10527000A26F43F4005342F40052A381A26700F0EE
:1052800071FB012857D038466946324604F1700355
:1052900001F040FBB0F1FF3FE846814626D00028F0
:1052A0003AD0002509E0236818F805201A70236811
:1052B0000133236001354D452ED2A368013B002BFD
:1052C000A360F0DAA269934228DB236818F805206E
:1052D0001A70236819780A293CD001330020236012
:1052E0000028E7D0A3894FF0FF3605E0A38943F0FB
:1052F00040039BB2A381064603F400731BB21BB9A3
:1053000004F1600009F094FA019801A909F0B2FAD9
:10531000304603B0BDE8F083A389EDE718F8051027
:105320003846224601F074FAB0F1FF335842584132
:105330000028BFD0D6E7731EFE2BA4D80DF10808B5
:10534000814608F8086DACE704F1600009F036FA10
:10535000A38989E73846E4E738B505460C4606F0E8
:10536000E7F818B106F0E4F883699BB1114B9C4251
:1053700017D0114B9C4218D0104B9C4202BF104BCF
:105380001B68DC6806F0D4F829462246BDE83840A0
:10539000FFF75ABF06F0CCF8FAF7AEFF054B9C4278
:1053A000E7D1074B1B685C68ECE7054B1B689C6802
:1053B000E8E700BF208F0108008F0108E08E010898
:1053C000408F0108F8B5224D0F46044606F0ACF8B0
:1053D000AB685E6826F0030606F2EF33DF1BBF0AF8
:1053E000013FBF02B7F5806F07DB0021204606F0C2
:1053F00081F8AB689B19984204D0204606F096F8D5
:105400000020F8BD7942204606F074F801300DD036
:10541000104BA9681A68F61B46F00106D71B2046F8
:105420004E601F6006F082F80120F8BD0021204682
:1054300006F060F8AB68C21A0F2ADEDD064909687B
:10544000401A044942F0010208605A60D5E700BFE3
:1054500074020020300800207C0600202DE9F04175
:105460000D460646002955D006F05EF855F8041C96
:10547000DFF868C1A5F1080421F00103E218DCF8A7
:1054800008005768904227F0030765D011F001012A
:10549000576032D00021D0194068C00706D4DB190C
:1054A000906800294AD0D268C260906043F001023F
:1054B0006260E350E1B9B3F5007F2DD35A0A042AA4
:1054C00066D89809383041000CEB810C4349DCF870
:1054D0000820624567D0516821F003018B4202D257
:1054E00092689445F7D1D368E360A260D4609C6071
:1054F0003046BDE8F04106F019B855F8085C641B69
:105500000CF10808A06840452B443FD0E568C56011
:10551000A860C0E7BDE8F081DB080CEBC302DCF853
:1055200004009168E2609B10012505FA03F318431B
:10553000A160CCF804009460CC60D9E7284DA84263
:10554000B1D143F00102CCF81440CCF81040E06037
:10555000A0606260E350CBE7FF18CB0707D455F893
:10556000083CE41AFF18A268E368D3609A601D4BF8
:10557000CCF808401B6847F001029F426260B7D335
:10558000194B30461968FFF71DFFB1E7012182E78B
:1055900002F15B004100142A96D9542A0CD8180B4A
:1055A0006E30410090E74B688010012505FA00F04D
:1055B00003434B60134697E7B2F5AA7F03D8D80B95
:1055C0007730410080E740F254518A4203D8980C6A
:1055D0007C30410078E7FC217E2075E774020020D2
:1055E0007C020020800600202C0800202DE9F04FCE
:1055F000936883B0914680460C46002B2CD0888956
:1056000000F008031BB2002B2AD00B69002B27D017
:1056100000F002031BB2D9F80050002B2FD04FF03E
:10562000000A4FF47F4B5746C7F6FF7B5F4534BFF8
:105630003B465B4652464046002F5AD0216AA66A36
:10564000B04700286BDDD9F808301B1A82443F1A96
:10565000C9F80830002BE9D1002003B0BDE8F08F75
:1056600040462146FEF7BAFB002840F04D81A08954
:10567000D9F8005000F002031BB2002BCFD110F07C
:10568000010B53D15E46002E2ED000F4007212B2F0
:10569000D4F808A00146002A00F083805645D4467D
:1056A000C0F0BB8001F49061002940F0C9802068FF
:1056B000374662465946CDF800C0FBF703FBDDF8DC
:1056C00000C0A1682268CAEB01036244A3602260A3
:1056D000D9F80830DB1BBB44F61BC9F80830002B97
:1056E000BAD0A089002ED0D1D5F800B06E680835A8
:1056F000C9E7D5F800A06F68083597E759463246E4
:10570000CDF800C0FBF7DEFA23689B192360404602
:105710002146FFF72FFDDDF800C000282BD0A3891C
:1057200043F04003A3814FF0FF3096E79A469C4632
:105730009B461F46002F2DD0BCF1000F72D0206871
:105740002269A668D4F814E0BA4534BF53463B46F4
:10575000904202D97644B342D0DC734541DBA66A5D
:10576000216ACDF800C040465A467346B047061E2F
:10577000DDF800C0D3DDBAEB060A46D0D9F8083010
:105780009B1BB344BF1BC9F80830002B3FF464AF28
:10579000002FD1D1D5F800B06F684FF0000C08355C
:1057A000C8E720682269904202D86769BE427ED26B
:1057B000564534BF374657463A465946FBF782FAB4
:1057C000A3682268DB1BD219A3602260002B7FF440
:1057D0007FAF40462146FFF7CDFC00283FF478AF6D
:1057E0009DE71A4659460193CDF800C0FBF76AFAC7
:1057F000019BA1682268DDF800C01E46C91AD218B4
:10580000BAEB060AA1602260B8D140462146FFF7F4
:10581000B1FC002883D1D446B0E72068B2463746B1
:10582000B44646E758460A213A46FBF785F9002870
:1058300065D000F1010ACBEB0A0A4FF0010C7EE7BC
:105840002169236867695B1A07EB470707EBD7777E
:1058500003F1010E7F10B644774500F480603A46AC
:1058600000B23CBF77463A46002833D04046114646
:105870000193FAF7BBFE019B8246002847D01A46E7
:1058800021690193FBF7D4F9A289019B22F490626C
:1058900042F08002A2810AEB0300FA1AC4F810A0B9
:1058A00067612060B246A2603746B44601E76FF0F8
:1058B00000439E4238BF334693FBF7F303FB07F3E5
:1058C000216AA76A40465A46B84700287FF727AFA3
:1058D0000746FDE64046019300F07AFD019B8246B3
:1058E0000028D8D140462169FFF7B8FDA38923F0ED
:1058F00080031B040C221B0CC8F8002010E707F1E2
:10590000010A4FF0010C1AE74FF0FF30A5E60C2317
:10591000C8F80030A38903E710B5144622B1104639
:105920000A49FBF7B3FC08B9094810BD20460849ED
:10593000FBF7ACFC0028F7D020460649FBF7A6FC95
:10594000034B00280CBF1846002010BD24A60108F8
:1059500020A601084C94010840F28460C2F20000C5
:10596000704700BF40F28463C2F20003186A7047B8
:1059700000487047A8060020002070470048704784
:10598000C806002038B50C46054605F0D1FD29466D
:105990002246BDE83840FFF7BFBF00BF08B505F09D
:1059A000C7FD014808BD00BFC8060020F0B58B89BF
:1059B00003F0020212B293B00C460546002A3CD115
:1059C000B1F90E1000291ADB6A4605F09DFE002889
:1059D00014DB029A0E9B02F47042B2F500514F4262
:1059E0004F41002BCCBF1E464FF48076B2F5004FDE
:1059F0002AD0A38943F40063A3810CE0A38903F0B8
:105A0000800636B243F40063002E0CBF4FF480765C
:105A10004026A381002728463146FAF7E7FDA389EF
:105A2000002827D01B4A43F080032A62A38120600C
:105A30002061666197B913B0F0BD01F147030B60B7
:105A40000B6101234B61F6E7E26A13498A42D0D128
:105A5000A289236542F48063A381DCE72846B4F978
:105A60000E1005F009FE0028E5D0A38943F00103DC
:105A7000A381E0E703F4007212B2002ADBD143F005
:105A8000020304F14702A3810123226022616361C2
:105A9000D1E700BF050200085111000870B5C469C4
:105AA00006460D465CB1E2689AB152F82500E0B1B5
:105AB000016842F8251000220261C26070BD10200A
:105AC000FAF780FD0023F0610446436083600360C1
:105AD000C36021223046042100F09CFFF369E0609E
